:020000040000FA
:040000008A110B282E
:10000800FE00030EF1000A08F2008A110F2A8A1175
:100018000D2883133930FD000230FE005030FF00F8
:10002800203084008A1183228A118A11C6228A11FB
:10003800F900F701F80183018A11222883120313BA
:10004800C7018A1169228A11F701F8018A11292149
:100058008A1183120313BD003D08C2004208031D24
:10006800362837283828A628F701F8014730BD0078
:100078003D08F4004530BE003E08F5004330BF009F
:100088003F08F60042088A11B1208A1175088312C8
:100098000313C1007408C0004708203E840083137E
:1000A80000088A1190228A11831203134308450419
:1000B800BD0044084604BE003D083E0403196528F7
:1000C80066286828F801F80A4108BA004008B9000B
:1000D8008A1188218A1183120313450846040319DB
:1000E800762877287E284608F5004508F4008A1106
:1000F800EB218A118312031343084404031985284A
:10010800862899284408F5004308F4008A11332208
:100118008A11992818304206031D93289428952897
:10012800A6281E308A11C2218A118A1129218A1112
:1001380083120313BD003D08C2004208031DA52811
:10014800A6288E2803304706031DAB28AC282A288A
:100158008A11C1228A118A110B2883120313BB004A
:100168007608840083138001840A8001750884005E
:100178008001840A800118303B06031DC428C52865
:10018800CB280330B9007408840039088000103087
:100198003B06031DD028D128E028740884000008F5
:1001A800B900BA017508840039088000840A3A0841
:1001B80080007408840080013B03031DE428E528BF
:1001C80003290130B90074088400390880077408CD
:1001D800840000080139B9007408840039088000D7
:1001E800740884000008031DFA28FB280029013040
:1001F800F4000030F5002829F401F501282902301F
:100208003B06031D0829092900290530B90074088F
:100218008400390880077408840000080139B9008F
:1002280074088400390880007408840000080319E1
:100238001E291F2924290230F4000030F50028293E
:100248000330F4000030F50008008312031305089A
:10025800F4007408BC003C091F39F4007408BC00A1
:100268003C03031938293929592902303C06031956
:100278003E293F29592904303C06031944294529B8
:10028800592908303C0603194A294B2959291030A5
:100298003C06031950295129592918303C060319DD
:1002A800562957295929003087293C0803195D29FF
:1002B8005E295729B901BA01013083120313B9071E
:1002C8000318BA0A0030BA073A08803AFF008030AB
:1002D8007F02031D712964303902031C74297529B2
:1002E8006029831203130508F4007408BB003B0956
:1002F8001F39F4007408BB003C083B06031D852920
:10030800862957293C080800831203133A08803AC3
:10031800FF0080307F02031D932903303902031C3C
:10032800962997299B2920308A119E228A118312A7
:1003380003133A08803AFF0080307F02031DA62984
:1003480002303902031CA929AA29AE2980308A1152
:100358009E228A11831203133A08803AFF008030E4
:100368007F02031DB92901303902031CBC29BD29AC
:10037800C12940308A119E228A1108008312031372
:10038800B900BA01E429BB01BC010130831203138F
:10039800BB070318BC0A0030BC073C08803AFF00C2
:1003A80083307F02031DDA29E8303B02031CDD2974
:1003B800DE29C9290130F400740883120313BA072F
:1003C80039083A02031CE929EA29C72908007508EF
:1003D800803AFF0080307F02031DF4290130740247
:1003E800031CF729F8290E2A7508803AFF00803087
:1003F8007F02031D012A05307402031C042A052A02
:10040800062A0E2A7408343E840083130008F60076
:100418007608F70408000B1D122A132A2C2A0B1140
:100428000130F902031D192A1A2A2C2A78080319FF
:100438001E2A1F2A282A831203130608F0007008B0
:10044800F3007308770686000930F0007008F90099
:1004580072088A00710E8300FE0E7E0E0900750870
:10046800803AFF0080307F02031D3C2A013074026D
:10047800031C3F2A402A4F2A7508803AFF00803023
:100488007F02031D492A05307402031C4C2A4D2A99
:100498004E2A4F2A771608000034013403340734F3
:1004A8000F3410341134133417341F3420342134EA
:1004B800233427342F3430343134333437343F3411
:1004C80000340134033407340F34D7308316031350
:1004D80081000730831203139F0081010B118B16D3
:1004E8008B171F308316031385008601FF30831294
:1004F8000313860008007E088A007F0882008A119C
:100508007F228A118000840A04087D0603190034BA
:10051800FF0A0319FE0A832A83120313B900FF3066
:100528008A11AC228A118312031339088A119E2278
:100538008A110800F500831203130608F4007408F2
:10054800F6007509F4007408F605760886000800B8
:10055800F500831203130608F4007408F600750802
:10056800F4007408F60476088600080002308A0051
:100578000408840A820700340934831203138601AD
:06058800C42A0800013442
:02400E0022FF8F
:00000001FF
